{
  "_format": "hh-sol-artifact-1",
  "contractName": "Lottery",
  "sourceName": "contracts/Lottery.sol",
  "abi": [
    {
      "inputs": [
        {
          "internalType": "address",
          "name": "vrfCoordinatorV2",
          "type": "address"
        },
        {
          "internalType": "uint256",
          "name": "entranceFee",
          "type": "uint256"
        },
        {
          "internalType": "bytes32",
          "name": "keyHash",
          "type": "bytes32"
        },
        {
          "internalType": "uint64",
          "name": "subscriptionId",
          "type": "uint64"
        },
        {
          "internalType": "uint32",
          "name": "callbackGasLimit",
          "type": "uint32"
        },
        {
          "internalType": "uint256",
          "name": "interval",
          "type": "uint256"
        }
      ],
      "stateMutability": "nonpayable",
      "type": "constructor"
    },
    {
      "inputs": [],
      "name": "Lottery__NotEnoughETHEntered",
      "type": "error"
    },
    {
      "inputs": [],
      "name": "Lottery__NotOpen",
      "type": "error"
    },
    {
      "inputs": [],
      "name": "Lottery__TransferFailed",
      "type": "error"
    },
    {
      "inputs": [
        {
          "internalType": "uint256",
          "name": "currentBalance",
          "type": "uint256"
        },
        {
          "internalType": "uint256",
          "name": "numPlayers",
          "type": "uint256"
        },
        {
          "internalType": "uint256",
          "name": "lotteryState",
          "type": "uint256"
        }
      ],
      "name": "Lottery__UpkeepNotNeeded",
      "type": "error"
    },
    {
      "inputs": [
        {
          "internalType": "address",
          "name": "have",
          "type": "address"
        },
        {
          "internalType": "address",
          "name": "want",
          "type": "address"
        }
      ],
      "name": "OnlyCoordinatorCanFulfill",
      "type": "error"
    },
    {
      "anonymous": false,
      "inputs": [
        {
          "indexed": true,
          "internalType": "address",
          "name": "player",
          "type": "address"
        }
      ],
      "name": "LotteryEnter",
      "type": "event"
    },
    {
      "anonymous": false,
      "inputs": [
        {
          "indexed": true,
          "internalType": "uint256",
          "name": "requestId",
          "type": "uint256"
        }
      ],
      "name": "RequestedLotteryWinner",
      "type": "event"
    },
    {
      "anonymous": false,
      "inputs": [
        {
          "indexed": true,
          "internalType": "address",
          "name": "winner",
          "type": "address"
        }
      ],
      "name": "WinnerPicked",
      "type": "event"
    },
    {
      "inputs": [
        {
          "internalType": "bytes",
          "name": "",
          "type": "bytes"
        }
      ],
      "name": "checkUpkeep",
      "outputs": [
        {
          "internalType": "bool",
          "name": "upkeepNeeded",
          "type": "bool"
        },
        {
          "internalType": "bytes",
          "name": "",
          "type": "bytes"
        }
      ],
      "stateMutability": "nonpayable",
      "type": "function"
    },
    {
      "inputs": [],
      "name": "enterLottery",
      "outputs": [],
      "stateMutability": "payable",
      "type": "function"
    },
    {
      "inputs": [],
      "name": "getEntranceFee",
      "outputs": [
        {
          "internalType": "uint256",
          "name": "",
          "type": "uint256"
        }
      ],
      "stateMutability": "view",
      "type": "function"
    },
    {
      "inputs": [],
      "name": "getInterval",
      "outputs": [
        {
          "internalType": "uint256",
          "name": "",
          "type": "uint256"
        }
      ],
      "stateMutability": "view",
      "type": "function"
    },
    {
      "inputs": [],
      "name": "getLatestTimeStamp",
      "outputs": [
        {
          "internalType": "uint256",
          "name": "",
          "type": "uint256"
        }
      ],
      "stateMutability": "view",
      "type": "function"
    },
    {
      "inputs": [],
      "name": "getLotteryState",
      "outputs": [
        {
          "internalType": "enum Lottery.LotteryState",
          "name": "",
          "type": "uint8"
        }
      ],
      "stateMutability": "view",
      "type": "function"
    },
    {
      "inputs": [],
      "name": "getNumWords",
      "outputs": [
        {
          "internalType": "uint256",
          "name": "",
          "type": "uint256"
        }
      ],
      "stateMutability": "pure",
      "type": "function"
    },
    {
      "inputs": [],
      "name": "getNumberOfPlayers",
      "outputs": [
        {
          "internalType": "uint256",
          "name": "",
          "type": "uint256"
        }
      ],
      "stateMutability": "view",
      "type": "function"
    },
    {
      "inputs": [
        {
          "internalType": "uint256",
          "name": "index",
          "type": "uint256"
        }
      ],
      "name": "getPlayer",
      "outputs": [
        {
          "internalType": "address",
          "name": "",
          "type": "address"
        }
      ],
      "stateMutability": "view",
      "type": "function"
    },
    {
      "inputs": [],
      "name": "getRecentWinner",
      "outputs": [
        {
          "internalType": "address",
          "name": "",
          "type": "address"
        }
      ],
      "stateMutability": "view",
      "type": "function"
    },
    {
      "inputs": [],
      "name": "getRequestConfirmations",
      "outputs": [
        {
          "internalType": "uint256",
          "name": "",
          "type": "uint256"
        }
      ],
      "stateMutability": "pure",
      "type": "function"
    },
    {
      "inputs": [],
      "name": "getSubscriptionId",
      "outputs": [
        {
          "internalType": "uint256",
          "name": "",
          "type": "uint256"
        }
      ],
      "stateMutability": "view",
      "type": "function"
    },
    {
      "inputs": [
        {
          "internalType": "bytes",
          "name": "",
          "type": "bytes"
        }
      ],
      "name": "performUpkeep",
      "outputs": [],
      "stateMutability": "nonpayable",
      "type": "function"
    },
    {
      "inputs": [
        {
          "internalType": "uint256",
          "name": "requestId",
          "type": "uint256"
        },
        {
          "internalType": "uint256[]",
          "name": "randomWords",
          "type": "uint256[]"
        }
      ],
      "name": "rawFulfillRandomWords",
      "outputs": [],
      "stateMutability": "nonpayable",
      "type": "function"
    }
  ],
  "bytecode": "0x6101606040523480156200001257600080fd5b506040516200203d3803806200203d833981810160405281019062000038919062000393565b858073ffffffffffffffffffffffffffffffffffffffff1660808173ffffffffffffffffffffffffffffffffffffffff1681525050506200008a6744cca8e866bd259a60c01b6200022a60201b60201c565b620000a667b7b55c3692be119960c01b6200022a60201b60201c565b8460a08181525050620000ca67e69e55701314ea6860c01b6200022a60201b60201c565b8573ffffffffffffffffffffffffffffffffffffffff1660c08173ffffffffffffffffffffffffffffffffffffffff16815250506200011a67255572b5691dd2c760c01b6200022a60201b60201c565b8360e081815250506200013e67aa9f2989bfdc4dc160c01b6200022a60201b60201c565b8267ffffffffffffffff166101008167ffffffffffffffff16815250506200017767f52b6f72674908d460c01b6200022a60201b60201c565b8163ffffffff166101208163ffffffff1681525050620001a867715c9990c4e33c0860c01b6200022a60201b60201c565b6000600160146101000a81548160ff02191690836001811115620001d157620001d06200042f565b5b0217905550620001f267a29d245137d7e8c060c01b6200022a60201b60201c565b426002819055506200021567720a35575dc6c42e60c01b6200022a60201b60201c565b8061014081815250505050505050506200045e565b50565b600080fd5b600073ffffffffffffffffffffffffffffffffffffffff82169050919050565b60006200025f8262000232565b9050919050565b620002718162000252565b81146200027d57600080fd5b50565b600081519050620002918162000266565b92915050565b6000819050919050565b620002ac8162000297565b8114620002b857600080fd5b50565b600081519050620002cc81620002a1565b92915050565b6000819050919050565b620002e781620002d2565b8114620002f357600080fd5b50565b6000815190506200030781620002dc565b92915050565b600067ffffffffffffffff82169050919050565b6200032c816200030d565b81146200033857600080fd5b50565b6000815190506200034c8162000321565b92915050565b600063ffffffff82169050919050565b6200036d8162000352565b81146200037957600080fd5b50565b6000815190506200038d8162000362565b92915050565b60008060008060008060c08789031215620003b357620003b26200022d565b5b6000620003c389828a0162000280565b9650506020620003d689828a01620002bb565b9550506040620003e989828a01620002f6565b9450506060620003fc89828a016200033b565b93505060806200040f89828a016200037c565b92505060a06200042289828a01620002bb565b9150509295509295509295565b7f4e487b7100000000000000000000000000000000000000000000000000000000600052602160045260246000fd5b60805160a05160c05160e051610100516101205161014051611b68620004d56000396000818161098e0152610a9c015260006106b90152600081816106960152610d9b015260006106750152600061063901526000818161037c0152610afe0152600081816103a201526103f60152611b686000f3fe6080604052600436106100dd5760003560e01c80636b68c03c1161007f578063c1af578511610059578063c1af57851461029f578063de3d9fb7146102a9578063e55ae4e8146102d4578063fd6673f514610311576100dd565b80636b68c03c1461020b5780636e04ff0d1461023657806391ad27b414610274576100dd565b80634585e33b116100bb5780634585e33b14610161578063473f1ddc1461018a57806353a2c19a146101b55780635f1b0fd8146101e0576100dd565b806309bc33a7146100e25780631fe543e31461010d578063320229eb14610136575b600080fd5b3480156100ee57600080fd5b506100f761033c565b60405161010491906112f2565b60405180910390f35b34801561011957600080fd5b50610134600480360381019061012f91906114a6565b6103a0565b005b34801561014257600080fd5b5061014b610460565b60405161015891906112f2565b60405180910390f35b34801561016d57600080fd5b506101886004803603810190610183919061155d565b6104a6565b005b34801561019657600080fd5b5061019f61079a565b6040516101ac91906115eb565b60405180910390f35b3480156101c157600080fd5b506101ca610800565b6040516101d791906112f2565b60405180910390f35b3480156101ec57600080fd5b506101f561084b565b60405161020291906112f2565b60405180910390f35b34801561021757600080fd5b50610220610894565b60405161022d919061167d565b60405180910390f35b34801561024257600080fd5b5061025d6004803603810190610258919061174d565b6108e7565b60405161026b929190611830565b60405180910390f35b34801561028057600080fd5b50610289610a5c565b60405161029691906112f2565b60405180910390f35b6102a7610ac0565b005b3480156102b557600080fd5b506102be610d5b565b6040516102cb91906112f2565b60405180910390f35b3480156102e057600080fd5b506102fb60048036038101906102f69190611860565b610dc9565b60405161030891906115eb565b60405180910390f35b34801561031d57600080fd5b50610326610e4d565b60405161033391906112f2565b60405180910390f35b6000610352675dbbe2ac0645a29360c01b610e96565b61036667b7cab0a3d53dc6e160c01b610e96565b61037a678d03faa3df5eca6660c01b610e96565b7f0000000000000000000000000000000000000000000000000000000000000000905090565b7f000000000000000000000000000000000000000000000000000000000000000073ffffffffffffffffffffffffffffffffffffffff163373ffffffffffffffffffffffffffffffffffffffff161461045257337f00000000000000000000000000000000000000000000000000000000000000006040517f1cf993f400000000000000000000000000000000000000000000000000000000815260040161044992919061188d565b60405180910390fd5b61045c8282610e99565b5050565b6000610476671edcc2bab70e2cfd60c01b610e96565b61048a67f84ba4e01be59ccf60c01b610e96565b61049e674c70787a7f97f91760c01b610e96565b600254905090565b6104ba67348353fcc9b258bd60c01b610e96565b6104ce6765b238fc83d2408a60c01b610e96565b6104e267d5dae0e5e59cbcb960c01b610e96565b60006104fc604051806020016040528060008152506108e7565b509050610513672ccd048f71fa689b60c01b610e96565b6105276750f66bfb798903a460c01b610e96565b806105bb5761054067bb1253b2de32169260c01b610e96565b6105546712a02e7b85bee0ab60c01b610e96565b47600080549050600160149054906101000a900460ff16600181111561057d5761057c611606565b5b6040517f6e195f250000000000000000000000000000000000000000000000000000000081526004016105b2939291906118b6565b60405180910390fd5b6105cf670331756df440347f60c01b610e96565b6105e3672c226e7aea7ec74160c01b610e96565b60018060146101000a81548160ff0219169083600181111561060857610607611606565b5b02179055506106216722dd3dc4d885933660c01b610e96565b610635673d47077bd853af3560c01b610e96565b60007f000000000000000000000000000000000000000000000000000000000000000073ffffffffffffffffffffffffffffffffffffffff16635d3b1d307f00000000000000000000000000000000000000000000000000000000000000007f000000000000000000000000000000000000000000000000000000000000000060037f000000000000000000000000000000000000000000000000000000000000000060016040518663ffffffff1660e01b81526004016106fa959493929190611965565b6020604051808303816000875af1158015610719573d6000803e3d6000fd5b505050506040513d601f19601f8201168201806040525081019061073d91906119cd565b905061075367538a747c3182b89160c01b610e96565b610767675a441b67d155212760c01b610e96565b807febf56642252004c18a776f30d528e7a0ce8c5db14b6596fb6550f630c8a24c6c60405160405180910390a250505050565b60006107b0674b68129a699be14e60c01b610e96565b6107c467d594346f16668a1160c01b610e96565b6107d8672aec9b6c20a419de60c01b610e96565b600160009054906101000a900473ffffffffffffffffffffffffffffffffffffffff16905090565b600061081667522f9223432f9d6260c01b610e96565b61082a679d7b99cb70c1e19860c01b610e96565b61083e67559a62887f8dc16560c01b610e96565b600163ffffffff16905090565b600061086167864aeed1f3c9c0af60c01b610e96565b61087567c5d4b655fafa3f9e60c01b610e96565b61088967d1a3b1b9185ab5e760c01b610e96565b600361ffff16905090565b60006108aa67313b380e9a9fd8b560c01b610e96565b6108be671cf2cd59ba523c7560c01b610e96565b6108d267a3e5d17ccd00c2e660c01b610e96565b600160149054906101000a900460ff16905090565b600060606108ff6736a34a66d5df2aa860c01b610e96565b610913678b5dd64d9d77a6f560c01b610e96565b6109276707e253d13dee6cf860c01b610e96565b6000600160149054906101000a900460ff16600181111561094b5761094a611606565b5b6000600181111561095f5761095e611606565b5b14905061097667cda1f16b9d5a44af60c01b610e96565b61098a671b5eb72ffb21ade160c01b610e96565b60007f0000000000000000000000000000000000000000000000000000000000000000600254426109bb9190611a29565b1190506109d2677abf822766d3012a60c01b610e96565b6109e6677ccc01de6acd698160c01b610e96565b600080600080549050119050610a0667e9259ef0b442a5ab60c01b610e96565b610a1a67de898a15ca69d36260c01b610e96565b60008047119050610a3567a5aa268d04c4c4ea60c01b610e96565b828015610a3f5750835b8015610a485750805b8015610a515750815b955050505050915091565b6000610a7267064ce1a9f9fd8f0c60c01b610e96565b610a8667f88495f3939dc6b160c01b610e96565b610a9a6797ae68e31f1f9ae160c01b610e96565b7f0000000000000000000000000000000000000000000000000000000000000000905090565b610ad46772fd4b41a6940c1360c01b610e96565b610ae867aaf1592439d2245860c01b610e96565b610afc67e8c5c2faa056565c60c01b610e96565b7f0000000000000000000000000000000000000000000000000000000000000000341015610b7e57610b38677103ac15a4fba54760c01b610e96565b610b4c675050cd96bed1f10d60c01b610e96565b6040517fec269fd100000000000000000000000000000000000000000000000000000000815260040160405180910390fd5b610b9267622817f8ac47846460c01b610e96565b610ba667e2ecbd3da6f0840a60c01b610e96565b610bba6750cfe5bb3552382760c01b610e96565b60006001811115610bce57610bcd611606565b5b600160149054906101000a900460ff166001811115610bf057610bef611606565b5b14610c4f57610c09676735831c570c126460c01b610e96565b610c1d67ad0121610bd282c960c01b610e96565b6040517fe76be6fc00000000000000000000000000000000000000000000000000000000815260040160405180910390fd5b610c63675afe8fd0c991f86760c01b610e96565b610c77670c0264a20fa97b4a60c01b610e96565b610c8b677db980f4b6f6303e60c01b610e96565b6000339080600181540180825580915050600190039060005260206000200160009091909190916101000a81548173ffffffffffffffffffffffffffffffffffffffff021916908373ffffffffffffffffffffffffffffffffffffffff160217905550610d026776966cf7b4abfc3e60c01b610e96565b610d1667caf9edeebbdd04b560c01b610e96565b3373ffffffffffffffffffffffffffffffffffffffff167f1d64fb5ba9f2548c5b98468d58f25b87b9e866afee0122e92d9fe722bf85076c60405160405180910390a2565b6000610d716793dc0b88a7b5949a60c01b610e96565b610d856753ca979328bd54ea60c01b610e96565b610d9967a53087fef54154ae60c01b610e96565b7f000000000000000000000000000000000000000000000000000000000000000067ffffffffffffffff16905090565b6000610ddf679063954ced8f596860c01b610e96565b610df367125adb855c05f27060c01b610e96565b610e0767e9454ae6a45e348f60c01b610e96565b60008281548110610e1b57610e1a611a5d565b5b9060005260206000200160009054906101000a900473ffffffffffffffffffffffffffffffffffffffff169050919050565b6000610e6367939189b70684546f60c01b610e96565b610e7767a77fd89782eb50aa60c01b610e96565b610e8b67ede2cb93409799fb60c01b610e96565b600080549050905090565b50565b610ead6786c932b8a20b760060c01b610e96565b610ec16749de1e2b3be42da260c01b610e96565b610ed567337d06758d52a30f60c01b610e96565b6000808054905082600081518110610ef057610eef611a5d565b5b6020026020010151610f029190611abb565b9050610f18679d96ba1f6ae2131960c01b610e96565b610f2c67ade436f93bc258e560c01b610e96565b6000808281548110610f4157610f40611a5d565b5b9060005260206000200160009054906101000a900473ffffffffffffffffffffffffffffffffffffffff169050610f8267a6e4bb51504aa16260c01b610e96565b80600160006101000a81548173ffffffffffffffffffffffffffffffffffffffff021916908373ffffffffffffffffffffffffffffffffffffffff160217905550610fd767aa69e885ed8b4d6960c01b610e96565b6000600160146101000a81548160ff02191690836001811115610ffd57610ffc611606565b5b021790555061101667c577b6c379e1871b60c01b610e96565b600067ffffffffffffffff81111561103157611030611363565b5b60405190808252806020026020018201604052801561105f5781602001602082028036833780820191505090505b5060009080519060200190611075929190611232565b5061108a67f1510e788d9c8cb760c01b610e96565b426002819055506110a56794659ff036b8c04d60c01b610e96565b6110b9674527922795c60fdb60c01b610e96565b60008173ffffffffffffffffffffffffffffffffffffffff16476040516110df90611b1d565b60006040518083038185875af1925050503d806000811461111c576040519150601f19603f3d011682016040523d82523d6000602084013e611121565b606091505b5050905061113967da65f086c34635fb60c01b610e96565b61114d67f8bbf54e22e764d560c01b610e96565b806111ac57611166677e1d01bbbcb4523560c01b610e96565b61117a674bb1b56e903e0e0260c01b610e96565b6040517f1c94012000000000000000000000000000000000000000000000000000000000815260040160405180910390fd5b6111c067fcbe9a9c4725936960c01b610e96565b6111d4676b60e4506ba7312b60c01b610e96565b6111e867cffd2a04b1d8cb1460c01b610e96565b8173ffffffffffffffffffffffffffffffffffffffff167f5b690ec4a06fe979403046eaeea5b3ce38524683c3001f662c8b5a829632f7df60405160405180910390a25050505050565b8280548282559060005260206000209081019282156112ab579160200282015b828111156112aa5782518260006101000a81548173ffffffffffffffffffffffffffffffffffffffff021916908373ffffffffffffffffffffffffffffffffffffffff16021790555091602001919060010190611252565b5b5090506112b891906112bc565b5090565b5b808211156112d55760008160009055506001016112bd565b5090565b6000819050919050565b6112ec816112d9565b82525050565b600060208201905061130760008301846112e3565b92915050565b6000604051905090565b600080fd5b600080fd5b61132a816112d9565b811461133557600080fd5b50565b60008135905061134781611321565b92915050565b600080fd5b6000601f19601f8301169050919050565b7f4e487b7100000000000000000000000000000000000000000000000000000000600052604160045260246000fd5b61139b82611352565b810181811067ffffffffffffffff821117156113ba576113b9611363565b5b80604052505050565b60006113cd61130d565b90506113d98282611392565b919050565b600067ffffffffffffffff8211156113f9576113f8611363565b5b602082029050602081019050919050565b600080fd5b600061142261141d846113de565b6113c3565b905080838252602082019050602084028301858111156114455761144461140a565b5b835b8181101561146e578061145a8882611338565b845260208401935050602081019050611447565b5050509392505050565b600082601f83011261148d5761148c61134d565b5b813561149d84826020860161140f565b91505092915050565b600080604083850312156114bd576114bc611317565b5b60006114cb85828601611338565b925050602083013567ffffffffffffffff8111156114ec576114eb61131c565b5b6114f885828601611478565b9150509250929050565b600080fd5b60008083601f84011261151d5761151c61134d565b5b8235905067ffffffffffffffff81111561153a57611539611502565b5b6020830191508360018202830111156115565761155561140a565b5b9250929050565b6000806020838503121561157457611573611317565b5b600083013567ffffffffffffffff8111156115925761159161131c565b5b61159e85828601611507565b92509250509250929050565b600073ffffffffffffffffffffffffffffffffffffffff82169050919050565b60006115d5826115aa565b9050919050565b6115e5816115ca565b82525050565b600060208201905061160060008301846115dc565b92915050565b7f4e487b7100000000000000000000000000000000000000000000000000000000600052602160045260246000fd5b6002811061164657611645611606565b5b50565b600081905061165782611635565b919050565b600061166782611649565b9050919050565b6116778161165c565b82525050565b6000602082019050611692600083018461166e565b92915050565b600080fd5b600067ffffffffffffffff8211156116b8576116b7611363565b5b6116c182611352565b9050602081019050919050565b82818337600083830152505050565b60006116f06116eb8461169d565b6113c3565b90508281526020810184848401111561170c5761170b611698565b5b6117178482856116ce565b509392505050565b600082601f8301126117345761173361134d565b5b81356117448482602086016116dd565b91505092915050565b60006020828403121561176357611762611317565b5b600082013567ffffffffffffffff8111156117815761178061131c565b5b61178d8482850161171f565b91505092915050565b60008115159050919050565b6117ab81611796565b82525050565b600081519050919050565b600082825260208201905092915050565b60005b838110156117eb5780820151818401526020810190506117d0565b60008484015250505050565b6000611802826117b1565b61180c81856117bc565b935061181c8185602086016117cd565b61182581611352565b840191505092915050565b600060408201905061184560008301856117a2565b818103602083015261185781846117f7565b90509392505050565b60006020828403121561187657611875611317565b5b600061188484828501611338565b91505092915050565b60006040820190506118a260008301856115dc565b6118af60208301846115dc565b9392505050565b60006060820190506118cb60008301866112e3565b6118d860208301856112e3565b6118e560408301846112e3565b949350505050565b6000819050919050565b611900816118ed565b82525050565b600067ffffffffffffffff82169050919050565b61192381611906565b82525050565b600061ffff82169050919050565b61194081611929565b82525050565b600063ffffffff82169050919050565b61195f81611946565b82525050565b600060a08201905061197a60008301886118f7565b611987602083018761191a565b6119946040830186611937565b6119a16060830185611956565b6119ae6080830184611956565b9695505050505050565b6000815190506119c781611321565b92915050565b6000602082840312156119e3576119e2611317565b5b60006119f1848285016119b8565b91505092915050565b7f4e487b7100000000000000000000000000000000000000000000000000000000600052601160045260246000fd5b6000611a34826112d9565b9150611a3f836112d9565b9250828203905081811115611a5757611a566119fa565b5b92915050565b7f4e487b7100000000000000000000000000000000000000000000000000000000600052603260045260246000fd5b7f4e487b7100000000000000000000000000000000000000000000000000000000600052601260045260246000fd5b6000611ac6826112d9565b9150611ad1836112d9565b925082611ae157611ae0611a8c565b5b828206905092915050565b600081905092915050565b50565b6000611b07600083611aec565b9150611b1282611af7565b600082019050919050565b6000611b2882611afa565b915081905091905056fea264697066735822122014100823673773a18ed0cd9ae0ff105df301e512dfd627d8cab8361ee519733d64736f6c63430008110033",
  "linkReferences": {},
  "deployedLinkReferences": {}
}